:0400000007EF00F016
:100008006882E7ED10F006EF12F02E0E3F6E000E3C
:10001800406E5BEC11F02D0E3F6E000E406E5BECF7
:1000280011F02C0E3F6E000E406E5BEC11F0120EBC
:100038003F6E000E406E35EC10F01A0E436E000E47
:10004800446E2CEC0CF02B0E3B6E000E3C6E37EC25
:1000580012F0BC0E4A6E000E4B6ECDEC11F0260E5F
:10006800336E000E346E87EC0EF00F0EC112000EC8
:100078000001AF6FAC69AD69B569000EB46F000ED1
:10008800AE6F1A0E436E000E446E490E456EFE0E9C
:10009800466EF0EC12F01A0E436E000E446E020E1D
:1000A800456E030E466ECCEC0DF01A0E436E000E34
:1000B800446E700E456EFF0E466EF0EC12F0070EA1
:1000C800396ED00E386E70EC13F01A0E3F6E000EBB
:1000D800406E010E416E94EC11F0000E366E000E6B
:1000E800356E58EC15F00009D8A47DEF00F07FEFCD
:1000F80000F08DEF00F0000E366E010E356E58ECF4
:1001080015F00009D8B48BEF00F08DEF00F022EF66
:1001180002F01A0E3F6E000E406E010E416E94EC16
:1001280011F01A0E436E000E446E160E456EFF0E49
:10013800466EF0EC12F01A0E436E000E446E020E7C
:10014800456E030E466ECCEC0DF01A0E436E000E93
:10015800446EA90E456EFF0E466EF0EC12F0070EC7
:10016800396ED00E386E70EC13F01A0E3F6E000E1A
:10017800406E010E416E94EC11F01A0E436E000EA3
:10018800446E6B0E456EFE0E466EF0EC12F01A0EC3
:10019800436E000E446E020E456E010E466ECCECA8
:1001A8000DF01A0E436E000E446E580E456EFF0E8B
:1001B800466EF0EC12F0000E0001B16F9CC0A0F08A
:1001C8009DC0A1F09EC0A2F09FC0A3F034EF01F043
:1001D800B569F9EF00F0120E3B6E000E3C6EB50EDD
:1001E8003D6E000E3E6E48EC0DF00001B529D8B406
:1001F80000EF01F002EF01F0EFEF00F0A00EB125E3
:10020800D96EDA6A000EDA22B5C0DFFF1A0E3F6E29
:10021800000E406EB5C041F022EC11F0010E396EAF
:100228002C0E386E70EC13F01A0E436E000E446EEE
:10023800020E456E0001B1510C0F466ECCEC0DF06C
:100248001A0E3F6E000E406E2A0E416E22EC11F01F
:10025800000E396E320E386E70EC13F00001B12BBF
:10026800030EB1653AEF01F03CEF01F0ECEF00F05E
:10027800000E366E030E356EA00E376E000E386E09
:10028800040E396E68EC12F0000E326E000E316EFC
:10029800000E336EE7EC13F01A0E3F6E000E406E40
:1002A800010E416E94EC11F01A0E436E000E446E6E
:1002B800880E456EFF0E466EF0EC12F0030E396E96
:1002C800E80E386E70EC13F0000E0001B16F1A0ED4
:1002D8003F6E000E406E010E416E94EC11F01A0E46
:1002E800436E000E446E7B0E456EFE0E466EF0ECBD
:1002F80012F01A0E436E000E446E020E456E010E89
:10030800466ECCEC0DF01A0E436E000E446E640E71
:10031800456EFF0E466EF0EC12F0DBEF01F0B569AA
:10032800A0EF01F0120E3B6E000E3C6EB50E3D6E56
:10033800000E3E6E48EC0DF00001B529D8B4A7EFC9
:1003480001F0A9EF01F096EF01F0A00EB125D96EEA
:10035800DA6A000EDA22B5C0DFFF1A0E3F6E000E11
:10036800406EB5C041F022EC11F0010E396E2C0E32
:10037800386E70EC13F01A0E436E000E446E020EC7
:10038800456E0001B1510C0F466ECCEC0DF01A0E03
:100398003F6E000E406E2A0E416E22EC11F0000EE8
:1003A800396E320E386E70EC13F00001B12B030E6B
:1003B8000001B165E2EF01F0E4EF01F093EF01F025
:1003C800000E366E0A0E356EA00E376E000E386EB1
:1003D800040E396E68EC12F0000E326E010E316EAA
:1003E800000E336EE7EC13F01A0E3F6E000E406EEF
:1003F800010E416E94EC11F01A0E436E000E446E1D
:10040800880E456EFF0E466EF0EC12F0030E396E44
:10041800E80E386E70EC13F01A0E3F6E000E406E48
:10042800010E416E94EC11F0000E326E020E316E28
:10043800000E336EE7EC13F02AEF02F0000E366E72
:10044800020E356E58EC15F00001AE6F0001B5696B
:10045800000EB06F6304D8A434EF02F036EF02F058
:10046800E8EF05F0260E316E000E326E4AEC15F0FC
:10047800000E566E000E556E000E0001B46F000E91
:10048800636EB5692E0E3B6E000E3C6EACEC10F040
:100498002D0E3B6E000E3C6EACEC10F01A0E3F6E4B
:1004A800000E406E010E416E94EC11F01A0E436E70
:1004B800000E446EDB0E456EFE0E466EF0EC12F03A
:1004C800030E396EE80E386E70EC13F0E8EF05F0A5
:1004D800AE05D8A472EF02F074EF02F0BAEF02F0A2
:1004E8001A0E3F6E000E406E010E416E94EC11F034
:1004F8001A0E436E000E446E080E456EFF0E466ED1
:10050800F0EC12F01A0E436E000E446E020E456EA9
:10051800010E466ECCEC0DF01A0E436E000E446EC2
:10052800CB0E456EFE0E466EF0EC12F02C0E3B6EB6
:10053800000E3C6E71EC10F04E0E396E200E386EC7
:1005480070EC13F0000E0001B06F000EAE6FB569CD
:100558002C0E3B6E000E3C6EACEC10F0000E326EB2
:10056800020E316E000E336EE7EC13F01A0E3F6E7A
:10057800000E406E010E416E94EC11F01A0E436E9F
:10058800000E446EFA0E456EFE0E466EF0EC12F04A
:100598001A0E436E000E446E020E456E010E466E34
:1005A800CCEC0DF01A0E436E000E446E5A0E456EDA
:1005B800FE0E466EF0EC12F00001B569EEEF02F0A7
:1005C800120E3B6E000E3C6EB50E3D6E000E3E6E7A
:1005D80048EC0DF00001B529D8B4F5EF02F0F7EFBB
:1005E80002F0E4EF02F0300EB519D8B4FEEF02F0D5
:1005F80000EF03F01DEF03F0310EB519D8B407EF83
:1006080003F009EF03F01DEF03F01A0E3F6E000E22
:10061800406E010E416E94EC11F01A0E436E000EFE
:10062800446E7C0E456EFF0E466EF0EC12F064EFE1
:1006380002F0000EB36F98C0A8F099C0A9F09AC054
:10064800AAF09BC0ABF094C0A4F095C0A5F096C0EA
:10065800A6F097C0A7F0D3EF05F0B5691A0E3F6E64
:10066800000E406E010E416E94EC11F01A0E436EAE
:10067800000E446E930E456EFF0E466EF0EC12F0BF
:100688001A0E436E000E446E020E456E010E466E43
:10069800CCEC0DF01A0E436E000E446E580E456EEB
:1006A800FF0E466EF0EC12F0000E396EC80E386E72
:1006B80070EC13F0A8EF03F0B5696DEF03F0120EBC
:1006C8003B6E000E3C6EB50E3D6E000E3E6E48EC65
:1006D8000DF00001B529D8B474EF03F076EF03F0FC
:1006E80063EF03F0A80EB325D96EDA6A000EDA229A
:1006F800B5C0DFFF1A0E3F6E000E406EB5C041F068
:1007080022EC11F0010E396E2C0E386E70EC13F0DD
:100718001A0E436E000E446E020E456E0001B35170
:100728000C0F466ECCEC0DF01A0E3F6E000E406EAC
:100738002A0E416E22EC11F0000E396E640E386EEE
:1007480070EC13F00001B32B030E0001B365AFEF9B
:1007580003F0B1EF03F060EF03F0000EB36F000E8B
:10076800366E030E356EA40E376E000E386E040E0C
:10077800396E97EC12F0A40E316E000E326EA80E90
:10078800336E000E346E040E356E1BEC13F0E80663
:10079800D8A4D1EF03F0D3EF03F01AEF04F0010E61
:1007A8000001B46F000EB06F1A0E3F6E000E406E5F
:1007B800010E416E94EC11F01A0E436E000E446E59
:1007C8004B0E456EFF0E466EF0EC12F01A0E436E9D
:1007D800000E446E020E456E010E466ECCEC0DF016
:1007E8001A0E436E000E446E930E456EFF0E466E53
:1007F800F0EC12F0030E396EE80E386E70EC13F060
:100808002E0E3B6E000E3C6E71EC10F0260E336E11
:10081800000E346E87EC0EF01A0E3F6E000E406E1E
:10082800010E416E94EC11F086EF04F0A40E316EC7
:10083800000E326EA80E336E000E346E040E356E46
:100848001BEC13F00009D8A42CEF04F02EEF04F0F1
:1008580086EF04F00001B02B000EB46F1A0E3F6E45
:10086800000E406E010E416E94EC11F01A0E436EAC
:10087800000E446EB40E456EFF0E466EF0EC12F09C
:100888001A0E436E000E446E020E456E010E466E41
:10089800CCEC0DF01A0E436E000E446EBF0E456E82
:1008A800FF0E466EF0EC12F01A0E3F6E000E406E10
:1008B8000001B0513308416E22EC11F0030E396E7D
:1008C800E80E386E70EC13F01A0E3F6E000E406E94
:1008D800010E416E94EC11F0020E0001B06577EF45
:1008E80004F079EF04F086EF04F0000E326E020E89
:1008F800316E010E336EE7EC13F0010E0001AE6F9E
:10090800E8EF05F00001B405D8A48DEF04F08FEFEF
:1009180004F031EF03F0E8EF05F0B5691A0E3F6E09
:10092800000E406E010E416E94EC11F01A0E436EEB
:10093800000E446E9E0E456EFF0E466EF0EC12F0F1
:100948001A0E436E000E446E020E456E010E466E80
:10095800CCEC0DF01A0E436E000E446E640E456E1C
:10096800FF0E466EF0EC12F0000E396EC80E386EAF
:1009780070EC13F008EF05F0B569CDEF04F0120E36
:100988003B6E000E3C6EB50E3D6E000E3E6E48ECA2
:100998000DF00001B529D8B4D4EF04F0D6EF04F077
:1009A800C3EF04F0A80EB325D96EDA6A000EDA2276
:1009B800B5C0DFFF1A0E3F6E000E406EB5C041F0A5
:1009C80022EC11F0010E396E2C0E386E70EC13F01B
:1009D8001A0E436E000E446E020E456E0001B351AE
:1009E8000C0F466ECCEC0DF01A0E3F6E000E406EEA
:1009F8002A0E416E22EC11F0000E396E640E386E2C
:100A080070EC13F00001B32B030E0001B3650FEF78
:100A180005F011EF05F0C0EF04F0000EB36F000E03
:100A2800366E0A0E356EA40E376E000E386E040E42
:100A3800396E97EC12F0A40E316E000E326EA80ECD
:100A4800336E000E346E040E356E1BEC13F0E806A0
:100A5800D8A431EF05F033EF05F07AEF05F0020E78
:100A68000001B46F000EB06F1A0E3F6E000E406E9C
:100A7800010E416E94EC11F01A0E436E000E446E96
:100A88004B0E456EFF0E466EF0EC12F01A0E436EDA
:100A9800000E446E020E456E010E466ECCEC0DF053
:100AA8001A0E436E000E446E9E0E456EFF0E466E85
:100AB800F0EC12F0030E396EE80E386E70EC13F09D
:100AC8002D0E3B6E000E3C6E71EC10F0260E336E50
:100AD800000E346E87EC0EF01A0E3F6E000E406E5C
:100AE800010E416E94EC11F0C7EF05F00001B02B38
:100AF800000EB46F1A0E3F6E000E406E010E416E6E
:100B080094EC11F01A0E436E000E446EB40E456E4E
:100B1800FF0E466EF0EC12F01A0E436E000E446E95
:100B2800020E456E010E466ECCEC0DF01A0E436EA9
:100B3800000E446EBF0E456EFF0E466EF0EC12F0CE
:100B48001A0E3F6E000E406E0001B0513308416E20
:100B580022EC11F0030E396EE80E386E70EC13F0CB
:100B68001A0E3F6E000E406E010E416E94EC11F0AD
:100B7800020E0001B065C3EF05F0C5EF05F0C7EF41
:100B880005F079EF04F0020E0001B419D8A4CFEFF4
:100B980005F0D1EF05F091EF04F0E8EF05F0B5515D
:100BA800536E546A5450000AD8B4DDEF05F0E8EFEC
:100BB80005F05350300AD8B486EF04F0010AD8B4CF
:100BC800C7EF05F0E8EF05F00001B451D8B4EFEF36
:100BD80005F0F1EF05F06CEF02F0010E0001B26FC5
:100BE80097EF09F0B56962EF09F01A0E3F6E000E33
:100BF800406E010E416E94EC11F01A0E436E000E19
:100C0800446E8B0E456EFE0E466EF0EC12F01A0E18
:100C1800436E000E446E020E456E010E466ECCEC1D
:100C28000DF00001B405D8A41CEF06F01EEF06F085
:100C38002AEF06F01A0E436E000E446EEB0E456E58
:100C4800FE0E466EF0EC12F03DEF06F0020EB419FF
:100C5800D8A431EF06F033EF06F03DEF06F01A0E98
:100C6800436E000E446E9B0E456EFE0E466EF0EC13
:100C780012F00001B45174EC0FF00001B56F000ED2
:100C8800396E640E386E70EC13F0310E0001B51930
:100C9800D8A451EF06F053EF06F057EF06F0030E15
:100CA800B26FBEEF06F0320EB519D8A45EEF06F0AB
:100CB80060EF06F064EF06F0040EB26FBEEF06F0C8
:100CC800330EB519D8A46BEF06F06DEF06F071EF8F
:100CD80006F0050EB26FBEEF06F0340EB519D8A4B3
:100CE80078EF06F07AEF06F086EF06F0B405D8A4A0
:100CF80080EF06F082EF06F086EF06F0020EB26F84
:100D0800BEEF06F0340EB519D8A48DEF06F08FEFBC
:100D180006F09CEF06F0020EB419D8A496EF06F080
:100D280098EF06F09CEF06F0060EB26FBEEF06F0E5
:100D3800B529D8B4A2EF06F0A4EF06F0BEEF06F08E
:100D48001A0E3F6E000E406E010E416E94EC11F0CB
:100D58001A0E436E000E446E7C0E456EFF0E466EF4
:100D6800F0EC12F0010E396EF40E386E70EC13F0E0
:100D7800BEEF06F0300E0001B565C5EF06F0C7EF0F
:100D880006F0CFEF06F0340EB565CDEF06F0CFEFE5
:100D980006F097EF09F06350D8B4D5EF06F0D7EF17
:100DA80006F0F9EF05F097EF09F01A0E3F6E000E06
:100DB800406E010E416E94EC11F01A0E436E000E57
:100DC800446E310E456EFF0E466EF0EC12F01A0EB0
:100DD800436E000E446E020E456E010E466ECCEC5C
:100DE8000DF01A0E436E000E446EBB0E456EFE0EDD
:100DF800466EF0EC12F00001B45174EC0FF00001F3
:100E0800B56F000E396E640E386E70EC13F0310E4B
:100E18000001B519D8A413EF07F015EF07F019EF83
:100E280007F0060EB26F62EF07F0320EB519D8A4BC
:100E380020EF07F022EF07F026EF07F0070EB26F5A
:100E480062EF07F0330EB519D8A42DEF07F02FEF96
:100E580007F033EF07F0080EB26F62EF07F0340EB9
:100E6800B519D8A43AEF07F03CEF07F040EF07F0C8
:100E7800010EB26F62EF07F0B529D8B446EF07F05C
:100E880048EF07F062EF07F01A0E3F6E000E406E53
:100E9800010E416E94EC11F01A0E436E000E446E72
:100EA8007C0E456EFF0E466EF0EC12F0010E396EA8
:100EB800F40E386E70EC13F062EF07F0300E00019C
:100EC800B56569EF07F06BEF07F073EF07F0340EC5
:100ED800B56571EF07F073EF07F097EF09F063500E
:100EE800D8B479EF07F07BEF07F0D9EF06F097EF6A
:100EF80009F01A0E3F6E000E406E010E416E94EC22
:100F080011F01A0E436E000E446E150E456EFE0E5D
:100F1800466EF0EC12F01A0E436E000E446E020E8E
:100F2800456E010E466ECCEC0DF01A0E436E000EA7
:100F3800446EAB0E456EFE0E466EF0EC12F00001EC
:100F4800B45174EC0FF00001B56F000E396E640EE9
:100F5800386E70EC13F0310E0001B519D8A4B7EF54
:100F680007F0B9EF07F0BDEF07F00A0EB26FF9EF1F
:100F780007F0320EB519D8A4C4EF07F0C6EF07F092
:100F8800CAEF07F0090EB26FF9EF07F0300EB51986
:100F9800D8A4D1EF07F0D3EF07F0D7EF07F0020E90
:100FA800B26FF9EF07F0B529D8B4DDEF07F0DFEF3E
:100FB80007F0F9EF07F01A0E3F6E000E406E010EB3
:100FC800416E94EC11F01A0E436E000E446E7C0EC6
:100FD800456EFF0E466EF0EC12F0010E396EF40EFF
:100FE800386E70EC13F0F9EF07F02F0E0001B565BD
:100FF80000EF08F002EF08F00AEF08F0320EB565CE
:1010080008EF08F00AEF08F097EF09F06350D8B43A
:1010180010EF08F012EF08F07DEF07F097EF09F0F6
:10102800B4C04AF0030EA3EC09F0F1EF05F0B4C028
:101038004AF0040EA3EC09F0F1EF05F0B4C04AF051
:10104800050EA3EC09F0F1EF05F0B4C04AF0060E66
:10105800A3EC09F0020E0001B419D8A436EF08F089
:1010680038EF08F03AEF08F0F1EF05F0B405D8A42E
:1010780040EF08F042EF08F097EF09F0020E000188
:10108800B26F97EF09F0B4C04AF0070EA3EC09F06D
:1010980042EF08F0B4C04AF0090EA3EC09F0080EBC
:1010A8000001B26F97EF09F0000EAF6F4FEF09F034
:1010B8001A0E3F6E000E406E010E416E94EC11F058
:1010C8001A0E436E000E446E3E0E456EFF0E466EBF
:1010D800F0EC12F01A0E3F6E000E406EDF0E416EFD
:1010E80022EC11F01A0E3F6E000E406E430E416E58
:1010F80022EC11F01A0E436E000E446E010E456E7E
:101108000B0E466ECCEC0DF0000E396EC80E386E24
:1011180070EC13F00001B45174EC0FF00001B56FDE
:10112800010E396E2C0E386E70EC13F06304D8A4DF
:10113800A0EF08F0A2EF08F0A4EF08F053EF08F0D2
:101148002F0E0001B565ABEF08F0ADEF08F0B5EF75
:1011580008F0390EB565B3EF08F0B5EF08F0CFEF3A
:1011680008F01A0E3F6E000E406E010E416E94ECB0
:1011780011F01A0E436E000E446E7C0E456EFF0E83
:10118800466EF0EC12F0010E396EF40E386E70EC0B
:1011980013F04FEF09F01A0E3F6E000E406EB5C007
:1011A80041F022EC11F00001B551D00FAD6FB569D7
:1011B800B45174EC0FF00001B56F010E396E2C0EAE
:1011C800386E70EC13F06304D8A4EDEF08F0EFEF7D
:1011D80008F0F1EF08F053EF08F02F0E0001B565A5
:1011E800F8EF08F0FAEF08F002EF09F0390EB565EC
:1011F80000EF09F002EF09F016EF09F01A0E3F6E42
:10120800000E406E010E416E94EC11F01A0E436E02
:10121800000E446E7C0E456EFF0E466EF0EC12F02A
:10122800C7EF08F01A0E3F6E000E406EB5C041F0D1
:1012380022EC11F00001B551D00FAC6FB569AD517A
:101248000A0DF350AC25AF6F400EC1EC13F0000E41
:10125800396EC80E386E70EC13F00001AF51C1EC56
:1012680013F0000E396EC80E386E70EC13F01A0EBB
:101278003F6E000E406E010E416E94EC11F01A0E96
:10128800436E000E446E380E456EFE0E466EF0EC50
:1012980012F0C7EF08F00001AF51D8A456EF09F0DB
:1012A80058EF09F053EF08F06350D8B45EEF09F037
:1012B80060EF09F05CEF08F053EF08F0B251536E9D
:1012C800546A5450000AD8B46CEF09F097EF09F04B
:1012D8005350010AD8B4F9EF05F0030AD8B4D9EF8E
:1012E80006F0010AD8B414EF08F0070AD8B41BEFC7
:1012F80008F0010AD8B422EF08F0030AD8B429EF9D
:1013080008F0010AD8B447EF08F00F0AD8B47DEF07
:1013180007F0010AD8B44EEF08F0030AD8B458EF22
:1013280008F097EF09F06304D8A49DEF09F09FEF48
:1013380009F0F6EF05F02AEF02F007EF00F04D6E26
:10134800000E516E000E4F6E000E506E1A0E3F6E5C
:10135800000E406E010E416E94EC11F020EF0AF081
:10136800110E516E210E4F6E310E506E1A0E436ED5
:10137800000E446ECA0E456EFF0E466EF0EC12F07B
:1013880045EF0AF0120E516E220E4F6E320E506E5D
:101398001A0E436E000E446ED30E456EFF0E466E57
:1013A800F0EC12F045EF0AF0130E516E230E4F6E5B
:1013B800330E506E1A0E436E000E446EDC0E456EF0
:1013C800FF0E466EF0EC12F045EF0AF0140E516E67
:1013D800240E4F6E340E506E1A0E436E000E446E7D
:1013E800E50E456EFF0E466EF0EC12F045EF0AF082
:1013F800150E516E250E4F6E350E506E1A0E436E39
:10140800000E446EEE0E456EFF0E466EF0EC12F0C6
:1014180045EF0AF0160E516E260E4F6E360E506EC0
:101428001A0E436E000E446E240E456EFF0E466E75
:10143800F0EC12F045EF0AF04D504B6E4C6A4C50F0
:10144800000AD8B42AEF0AF045EF0AF04B50030A15
:10145800D8B4B4EF09F0070AD8B4C6EF09F0010A06
:10146800D8B4D8EF09F0030AD8B4EAEF09F0010AB2
:10147800D8B4FCEF09F00E0AD8B40EEF0AF045EF25
:101488000AF05150C1EC13F0000E396E640E386E3C
:1014980070EC13F05150C1EC13F04E6E4E04D8A40A
:1014A80058EF0AF05AEF0AF066EF0AF01A0E436E88
:1014B800000E446EF80E456EFF0E466EF0EC12F00C
:1014C80078EF0AF04E50D8A46CEF0AF06EEF0AF0ED
:1014D80078EF0AF01A0E436E000E446EF40E456E55
:1014E800FF0E466EF0EC12F01A0E436E000E446EBC
:1014F800020E456E010E466ECCEC0DF01A0E436ED0
:10150800000E446E270E456EFE0E466EF0EC12F08D
:101518004A5074EC0FF0526E000E396E640E386E3D
:1015280070EC13F0310E5218D8A49DEF0AF09FEF1B
:101538000AF0A4EF0AF04F50C1EC13F0DBEF0AF009
:10154800320E5218D8A4ABEF0AF0ADEF0AF0B2EFA2
:101558000AF05050C1EC13F0DBEF0AF05228D8B46F
:10156800B8EF0AF0BAEF0AF0DBEF0AF0300E5218C3
:10157800D8B4C1EF0AF0C3EF0AF0DBEF0AF01A0E95
:101588003F6E000E406E010E416E94EC11F01A0E83
:10159800436E000E446E7C0E456EFF0E466EF0ECF8
:1015A80012F0010E396EF40E386E70EC13F02F0E37
:1015B8005264E1EF0AF0E3EF0AF0EBEF0AF0320EC3
:1015C8005264E9EF0AF0EBEF0AF0F3EF0AF0635028
:1015D800D8B4F1EF0AF0F3EF0AF0AAEF09F012001D
:1015E800010E396E31503210D8B4FDEF0AF0FFEF1A
:1015F8000AF010EF0BF031C0D9FF32C0DAFFDF304C
:10160800E832E832070B336E070E33640EEF0BF047
:1016180010EF0BF073EF0BF0000E396E94EF0BF038
:1016280031C0D9FF32C0DAFFDF30E832E832070BC9
:10163800336E010E346E332A24EF0BF0D890343613
:10164800332E22EF0BF03450FF0A356E31C0D9FF2C
:1016580032C0DAFFDF50070B366E3650020D8A0EA5
:10166800F324D96E000EF420DA6EDECF37F0DDCF2A
:1016780038F037C0D9FF38C0DAFF3550DF1694EF9D
:101688000BF031C0D9FF32C0DAFFDF30E832E83280
:10169800070B336E010E346E332A55EF0BF0D890DA
:1016A8003436332E53EF0BF031C0D9FF32C0DAFF96
:1016B800DF50070B356E3550020D8A0EF324D96EB4
:1016C800000EF420DA6EDECF36F0DDCF37F036C00C
:1016D800D9FF37C0DAFF3450DF1294EF0BF031C076
:1016E800D9FF32C0DAFFDFBC7CEF0BF07FEF0BF0E5
:1016F800010E80EF0BF0000E336E346A3450000A8E
:10170800D8B489EF0BF010EF0BF03350000AD8B4BF
:1017180014EF0BF0010AD8B445EF0BF010EF0BF003
:1017280039501200010E3A6E31503210D8B49FEF82
:101738000BF0A1EF0BF0B2EF0BF031C0D9FF32C0C4
:10174800DAFFDF30E832E832070B346E070E346414
:10175800B0EF0BF0B2EF0BF015EF0CF0000E3A6E95
:1017680015EF0CF031C0D9FF32C0DAFFDF30E832B4
:10177800E832070B346E010E356E342AC6EF0BF0D3
:10178800D8903536342EC4EF0BF03550FF0A366E3C
:1017980031C0D9FF32C0DAFFDF50070B376E375040
:1017A800020D010EF324D96E000EF420DA6EDECF9E
:1017B80038F0DDCF39F038C0D9FF39C0DAFF3650FC
:1017C800DF162AEF0CF031C0D9FF32C0DAFFDF3064
:1017D800E832E832070B346E010E356E342AF7EF23
:1017E8000BF0D8903536342EF5EF0BF031C0D9FF19
:1017F80032C0DAFFDF50070B366E3650020D010E8D
:10180800F324D96E000EF420DA6EDECF37F0DDCF88
:1018180038F037C0D9FF38C0DAFF3550DF122AEF69
:101828000CF03350346E356A3550000AD8B41FEFC7
:101838000CF02AEF0CF03450000AD8B4B6EF0BF0D5
:10184800010AD8B4E7EF0BF02AEF0CF03A50120077
:10185800000E476E43504410D8A435EF0CF037EF14
:101868000CF039EF0CF0BBEF0CF043C03BF044C078
:101878003CF037EC12F0486E010E43243B6E000E2C
:1018880044203C6E37EC12F0486E000E476E47500D
:101898004324456E000E4420466E020E45243B6EDE
:1018A800000E46203C6E37EC12F0472A030E4764C0
:1018B80060EF0CF062EF0CF04BEF0CF0340E456E5D
:1018C800F20EE82EFED7452EFCD743C03FF044C0A9
:1018D80040F0380E416E94EC11F00D0E456EFC0E82
:1018E800E82EFED7452EFCD743C03FF044C040F059
:1018F800380E416E94EC11F0640EE82EFED743C00A
:101908003FF044C040F0380E416E94EC11F043C0F3
:101918003FF044C040F0010E416E94EC11F043C01A
:101928003FF044C040F0020E416E94EC11F043C009
:101938003FF044C040F0060E416E94EC11F043C0F5
:101948003FF044C040F00E0E416E94EC11F043C0DD
:101958003FF044C040F0280E416E94EC11F043C0B3
:101968003FF044C040F0800E416E94EC11F012003C
:1019780020EE02F03F50D9264050DA22DF50D8B48A
:10198800C8EF0CF0CAEF0CF0F6EF0CF020EE02F006
:101998003F50D9264050DA22DE04D8B4D6EF0CF0F6
:1019A800D8EF0CF0F6EF0CF020EE02F03F50D926FD
:1019B8004050DA22020EDE18D8B4E5EF0CF0E7EF5B
:1019C8000CF0F6EF0CF020EE02F03F50D926405014
:1019D800DA22030EDE18D8A4F4EF0CF0F6EF0CF0C0
:1019E80013EF0DF011C043F010C044F00FC045F0E4
:1019F800430E3B6E000E3C6E37EC12F0426E450E05
:101A08003B6E000E3C6E37EC12F0426E440E3B6E9D
:101A1800000E3C6E37EC12F0426E47EF0DF020EEF0
:101A280002F03F50D9264050DA22040EDE18D8A41E
:101A380020EF0DF022EF0DF047EF0DF00EC046F04D
:101A48000DC047F00CC048F00BC049F0460E3B6E85
:101A5800000E3C6E37EC12F0426E470E3B6E000EE5
:101A68003C6E37EC12F0426E480E3B6E000E3C6E38
:101A780037EC12F0426E490E3B6E000E3C6E37ECAE
:101A880012F0426EC79E1200000E436E000E446EA6
:101A9800000E426E000E416E3B503C10D8B457EF1A
:101AA8000DF059EF0DF062EF0DF03D503E10D8A447
:101AB80060EF0DF062EF0DF064EF0DF0CBEF0DF07D
:101AC800000E436E000E426E42503B24316E000EF3
:101AD8003C20326E000E336E96EC0BF0422A030E59
:101AE800426479EF0DF07BEF0DF068EF0DF0435095
:101AF8003B24316E000E3C20326E010E336E96ECA4
:101B08000BF0000E446E44503B243F6E000E3C2008
:101B1800406E040E3F24316E000E4020326E410E9E
:101B2800336E000E346E2BEC0EF04104D8A49FEFF8
:101B38000DF0A1EF0DF0B9EF0DF04350040D050EB7
:101B4800F3243F6EFE0EF420406E44503F26000EF4
:101B580040223FC0F6FF40C0F7FFF86A3DC0D9FFFA
:101B68003EC0DAFF0800F5CFDFFF442A030E4464C5
:101B7800C0EF0DF0C2EF0DF087EF0DF0432A030E12
:101B88004364C9EF0DF0CBEF0DF066EF0DF01200D6
:101B9800010E496E460643504410D8A4D6EF0DF006
:101BA800D8EF0DF00CEF0EF0000E496E29EF0EF095
:101BB80043C03FF044C040F04650800F416E94EC63
:101BC80011F0496E29EF0EF043C03FF044C040F0D9
:101BD8004650C00F416E94EC11F0496E29EF0EF09B
:101BE80043C03FF044C040F04650940F416E94EC1F
:101BF80011F0496E29EF0EF043C03FF044C040F0A9
:101C08004650D40F416E94EC11F0496E29EF0EF056
:101C18004550476E486A4850000AD8B416EF0EF08F
:101C280029EF0EF04750010AD8B4DCEF0DF0030A93
:101C3800D8B4E8EF0DF0010AD8B4F4EF0DF0070AB4
:101C4800D8B400EF0EF029EF0EF049501200010E43
:101C58003A6E31503210D8B434EF0EF036EF0EF041
:101C680050EF0EF033503410D8B43DEF0EF03FEF84
:101C78000EF050EF0EF031C0D9FF32C0DAFFDF307E
:101C8800E832E832070B356E070E35644EEF0EF07A
:101C980050EF0EF054EF0EF0000E3A6E85EF0EF096
:101CA80031C0D9FF32C0DAFFDF30E832E832070B43
:101CB800356E31C0D9FF32C0DAFFDF50070B366E00
:101CC8003650020D800EF324D96E000EF420DA6E21
:101CD800DECF37F0DDCF38F037C0D9FF38C0DAFFB4
:101CE800DF50396E352A7BEF0EF0D8903932352E19
:101CF80079EF0EF03950010B33C0D9FF34C0DAFF49
:101D0800DF6E3A50120033503410D8A48EEF0EF024
:101D180090EF0EF092EF0EF0E2EF0EF0CD9020EE85
:101D280004F03350D9263450DA22DF50030B356ED5
:101D3800353ACD503518CF0B3518CD6E33C031F04C
:101D480034C032F0F6EC0FF033C031F034C032F06A
:101D580047EC14F033C031F034C032F028EC14F002
:101D680020EE02F03350D9263450DA22DECF35F097
:101D7800DDCF36F036C035F0366A3550CF6E20EEFE
:101D880002F03350D9263450DA22DF50CE6E20EEDE
:101D980002F03350D9263450DA22DECF57F0DDCFA7
:101DA80058F09D809E90F28EF28C33C0D9FF34C0DB
:101DB800DAFFDECF59F0DDCF5AF0CD801200345073
:101DC8003510D8A4EAEF0EF0ECEF0EF0EEEF0EF0BF
:101DD8002FEF0FF0D59E34C031F035C032F0C4EC8F
:101DE80012F034C031F035C032F009EC14F034C0D0
:101DF80031F035C032F0B7EC0FF020EE03F034507C
:101E0800D9263550DA22DECF36F0DDCF37F037C0AD
:101E180036F0376A3650D76E20EE03F03450D926A4
:101E28003550DA22DF50D66E20EE03F03450D92632
:101E38003550DA22DECF5BF0DDCF5CF0F28AF29427
:101E4800F28EF28C34C0D9FF35C0DAFFDECF5DF0F8
:101E5800DDCF5EF0D58E12003B503C10D8A437EF92
:101E68000FF039EF0FF03DEF0FF0000E3E6E72EFFE
:101E78000FF0020E3B24316E000E3C20326E3D50B6
:101E8800010B336E96EC0BF03E6E030E3B24316E65
:101E9800000E3C20326ED8903D30010B336E96EC2C
:101EA8000BF03E6E040E3B24316E000E3C20326E69
:101EB8003D40E8423F0B010B336E96EC0BF03E6E53
:101EC800050E3B24316E000E3C20326E3D38E8464C
:101ED8001F0B010B336E96EC0BF03E6E3E5012005A
:101EE800456E4668ADEF0FF0B80E555C0B0E5658B0
:101EF800D8A081EF0FF083EF0FF08BEF0FF04504C0
:101F0800D8B489EF0FF08BEF0FF09FEF0FF0D00EE2
:101F1800555C070E5658D8A094EF0FF096EF0FF0C7
:101F2800A3EF0FF0020E4518D8A49DEF0FF09FEF16
:101F38000FF0A3EF0FF0010E636EB5EF0FF0120E66
:101F48003B6E000E3C6E460E3D6E000E3E6E48EC3B
:101F58000DF04628D8B4B3EF0FF0B5EF0FF078EFD7
:101F68000FF04650120020EE05F03150D9263250BD
:101F7800DA22DFA2C2EF0FF0C4EF0FF0C7EF0FF0C5
:101F8800D59AF5EF0FF020EE05F03150D9263250F2
:101F9800DA22DFB2D2EF0FF0D4EF0FF0F5EF0FF047
:101FA800D58A20EE05F03150D9263250DA22DFA446
:101FB800E0EF0FF0E2EF0FF0E5EF0FF0D598F5EF57
:101FC8000FF020EE05F03150D9263250DA22DFB476
:101FD800F0EF0FF0F2EF0FF0F5EF0FF0D588F5EF17
:101FE8000FF0120020EE04F03150D9263250DA22D8
:101FF800DFB401EF10F003EF10F006EF10F0CD9210
:1020080034EF10F020EE04F03150D9263250DA22A5
:10201800DFA411EF10F013EF10F034EF10F0CD82C1
:1020280020EE04F03150D9263250DA22DFB61FEF05
:1020380010F021EF10F024EF10F0CD9434EF10F0F1
:1020480020EE04F03150D9263250DA22DFA62FEFE5
:1020580010F031EF10F034EF10F0CD8434EF10F0C1
:102068001200000E436E000E446E3F504010D8A47C
:1020780040EF10F042EF10F044EF10F070EF10F066
:10208800000E436E43503F243B6E000E40203C6ED2
:1020980037EC12F0432A030E436455EF10F057EF64
:1020A80010F046EF10F0000E446E44503F24416E8D
:1020B800000E4020426E040E4124316E000E422074
:1020C800326EF4EC0AF0442A030E44646EEF10F00A
:1020D80070EF10F059EF10F012003B503C10D8A4EC
:1020E80078EF10F07AEF10F07CEF10F0ABEF10F013
:1020F80066C03EF03BC0D9FF3CC0DAFFDF500F0B93
:102108003D6E3E503D18F80B3D183E6E3BC0D9FF62
:102118003CC0DAFFDF38070B3D6E3D463D463D4685
:102128003E503D18C70B3D183E6E3E9C3BC0D9FF44
:102138003CC0DAFFDFAE02D03E8E01D03E9E3E0E9E
:10214800316E000E326E010E336E96EC0BF01200FB
:102158003B503C10D8A4B3EF10F0B5EF10F0B7EF38
:1021680010F0E6EF10F065C03EF03BC0D9FF3CC070
:10217800DAFFDF500F0B3D6E3E503D18F80B3D184F
:102188003E6E3BC0D9FF3CC0DAFFDF38070B3D6E1F
:102198003D463D463D463E503D18C70B3D183E6EF8
:1021A8003E9C3BC0D9FF3CC0DAFFDFAE02D03E8E7A
:1021B80001D03E9E3E0E316E000E326E000E336E22
:1021C80096EC0BF012000600FACF2FF0FBCF30F0A0
:1021D800F2AAF1EF10F0F3EF10F0FCEF10F0F2A418
:1021E800F8EF10F0FAEF10F0FCEF10F0FAEC14F042
:1021F8009DA001EF11F003EF11F00CEF11F09EA07C
:1022080008EF11F00AEF11F00CEF11F0DFEC14F009
:102218009DA611EF11F013EF11F01CEF11F09EA61F
:1022280018EF11F01AEF11F01CEF11F06AEC15F02D
:1022380030C0FBFF2FC0FAFF689211003F504010DA
:10224800D8A429EF11F02BEF11F02FEF11F0000EA9
:10225800426E59EF11F03FC031F040C032F0010E2C
:10226800336E96EC0BF0426E3FC03BF040C03CF042
:1022780041380F0B3D6E30EC0FF0426E3FC03BF023
:1022880040C03CF099EC13F0426E3FC03BF040C0B8
:102298003CF041C03DF030EC0FF0426E3FC03BF0E7
:1022A80040C03CF099EC13F0426E425012003F508F
:1022B8004010D8A462EF11F064EF11F066EF11F04E
:1022C80093EF11F067C042F03FC0D9FF40C0DAFF7A
:1022D800DF500F0B416E42504118F80B4118426E07
:1022E8003FC0D9FF40C0DAFFDF38070B416E4146D7
:1022F8004146414642504118C70B4118426E429C24
:102308003FC0D9FF40C0DAFFDFAE02D0428E01D015
:10231800429E420E3B6E000E3C6E37EC12F01200ED
:102328003F504010D8A49BEF11F09DEF11F0A1EFA2
:1023380011F0000E426ECBEF11F03FC031F040C0FB
:1023480032F0000E336E96EC0BF0426E3FC03BF05D
:1023580040C03CF041380F0B3D6E30EC0FF0426E40
:102368003FC03BF040C03CF099EC13F0426E3FC0D8
:102378003BF040C03CF041C03DF030EC0FF0426E05
:102388003FC03BF040C03CF099EC13F0426E425025
:1023980012004A504B10D8A4D4EF11F0D6EF11F028
:1023A800D8EF11F005EF12F0C69A4AC03FF04BC0C3
:1023B80040F0BCEC0CF020EE02F04A50D9264B500D
:1023C800DA22DF504C6EC6504C18F00B4C18C66E13
:1023D8004AC031F04BC032F066EC14F04AC031F01C
:1023E8004BC032F085EC14F04AC031F04BC032F0EB
:1023F800A4EC14F04AC031F04BC032F046EC13F0B4
:10240800C68A1200580EF66E2A0EF76E000EF86E87
:1024180000EE80F010EE20F00900F5CFEEFFE55059
:10242800E150FAE12A0EF66E2A0EF76E000EF86EEB
:1024380000EE01F010EE2EF00900F5CFEEFFE550AA
:10244800E150FAE100EEB6F00A0EEE6AE806FDE1A8
:1024580000EE55F0130EEE6AE806FDE1689068920A
:10246800000109EF00F03B503C10D8B43EEF12F0E9
:1024780040EF12F051EF12F03BC0D9FF3CC0DAFF39
:10248800DF30E832E832070B3D6E070E3D644FEF50
:1024980012F051EF12F051EF12F03BC031F03CC096
:1024A80032F0F4EC0AF03BC031F03CC032F03BC0F3
:1024B800D9FF3CC0DAFF000EDFBE010E336E96EC8A
:1024C8000BF03E6E3E501200000E3E6E000E3D6E4A
:1024D800000E3E6E000E3D6E84EF12F035503D2426
:1024E800316E36503E20326E3D503724D96E3E5004
:1024F8003820DA6EDF50336EE7EC13F03D4A3E2A9F
:1025080039503A6E3B6A3A503D5C3E50800A3C6E08
:102518003B50800A3C58D8A094EF12F096EF12F086
:1025280072EF12F01200000E3E6E000E3D6E000EAD
:102538003E6E000E3D6EB1EF12F035503D24316E07
:1025480036503E20326E3D503724336E3E50382090
:10255800346EC3EC14F03D4A3E2A39503A6E3B6A59
:102568003A503D5C3E50800A3C6E3B50800A3C58D5
:10257800D8A0C1EF12F0C3EF12F0A1EF12F01200D1
:1025880020EE05F03150D9263250DA22DFA6CFEFFF
:1025980012F0D1EF12F0E1EF12F0D59620EE02F032
:1025A8003150D9263250DA22DF50336ED5503318E5
:1025B800F80B3318D56EEFEF12F020EE05F031501E
:1025C800D9263250DA22DFB6ECEF12F0EEEF12F035
:1025D800EFEF12F0D586120043504410D8A4F7EF5D
:1025E80012F0F9EF12F00BEF13F01AEF13F043C0EB
:1025F8003FF044C040F045C0F6FF46C0F7FFF86A18
:102608000800F5CF41F022EC11F0454A462A45C0B2
:10261800F6FF46C0F7FFF86A0800F5500009D8A48D
:1026280018EF13F01AEF13F0FBEF12F01200000E80
:10263800396E010E386E3BEF13F039503324D96EE2
:10264800000E3420DA6E39503124E16E000E32204B
:10265800E26EDE50E618D8B434EF13F036EF13F01C
:102668003AEF13F0000E386E44EF13F0392A355064
:10267800395CD8A042EF13F044EF13F021EF13F0C8
:102688003850120020EE03F03150D9263250DA22A9
:10269800DFA651EF13F053EF13F061EF13F09D86AF
:1026A8009E96F28EF28C31C0D9FF32C0DAFFDECFAF
:1026B8005FF0DDCF60F06FEF13F020EE03F03150E4
:1026C800D9263250DA22DFB66CEF13F06EEF13F032
:1026D8006FEF13F09D961200200E346E000E356ECB
:1026E800E3EC0EF03850611807E139506218D8A4AD
:1026F80080EF13F082EF13F076EF13F03850611883
:1027080007E139506218D8A48CEF13F08EEF13F05C
:1027180092EF13F0000E626E000E616E200E316EA5
:10272800000E326E3CEC15F012003B503C10D8A461
:10273800A0EF13F0A2EF13F0A6EF13F0000E3D6E1A
:10274800BFEF13F0010E3B24316E000E3C20326EB9
:10275800010E336E96EC0BF0030EE82EFED700F058
:10276800010E3B24316E000E3C20326E000E336E9B
:1027780096EC0BF03D6E3D5012003B6E2B0E316E09
:10278800000E326E000E336E96EC0BF03BC0C9FFA4
:102798009EB6D1EF13F0D3EF13F0DAEF13F0C7A022
:1027A800D8EF13F0DAEF13F0CCEF13F09E96C9CF01
:1027B8003CF02B0E316E000E326E010E336E96EC2D
:1027C8000BF03C501200000EF2BE010E346E325077
:1027D800030BAA6E31C0A9FF33C0A8FFA69EA69C12
:1027E800A684F29E550EA76EAA0EA76EA682A6B262
:1027F80000EF14F002EF14F0FBEF13F0A69434B0DE
:1028080002D0F29E01D0F28E120020EE05F0315077
:10281800D9263250DA22DFA014EF14F016EF14F0A4
:1028280019EF14F0D58C27EF14F020EE05F0315095
:10283800D9263250DA22DFB024EF14F026EF14F054
:1028480027EF14F0D59C120020EE04F03150D92661
:102858003250DA22DFBA33EF14F035EF14F038EFE4
:1028680014F0CD9E46EF14F020EE04F03150D92636
:102878003250DA22DFAA43EF14F045EF14F046EFA6
:1028880014F0CD8E120020EE04F03150D9263250CB
:10289800DA22DFA852EF14F054EF14F057EF14F0D7
:1028A800CD8665EF14F020EE04F03150D926325071
:1028B800DA22DFB862EF14F064EF14F065EF14F079
:1028C800CD96120020EE03F03150D9263250DA228C
:1028D800DFA071EF14F073EF14F076EF14F0C688F0
:1028E80084EF14F020EE03F03150D9263250DA226A
:1028F800DFB081EF14F083EF14F084EF14F0C69882
:10290800120020EE03F03150D9263250DA22DFA22D
:1029180090EF14F092EF14F095EF14F0C78CA3EF3A
:1029280014F020EE03F03150D9263250DA22DFB20B
:10293800A0EF14F0A2EF14F0A3EF14F0C79C12005C
:1029480020EE03F03150D9263250DA22DFA4AFEF5F
:1029580014F0B1EF14F0B4EF14F0C78EC2EF14F016
:1029680020EE03F03150D9263250DA22DFB4BFEF1F
:1029780014F0C1EF14F0C2EF14F0C79E12003350E8
:102988003410D8A4CAEF14F0CCEF14F0CEEF14F042
:10299800DEEF14F03250030BAA6E31C0A9FFA69ED9
:1029A800A69CA68000F000F033C0D9FF34C0DAFF3F
:1029B800A8CFDFFF12009E905850CF6E57C0CEFFB1
:1029C80059505A10D8B4EBEF14F0EDEF14F0F9EFBA
:1029D80014F002D8F9EF14F00500FA6E5950FD6EA4
:1029E8005A50FE6EFF6AFA5012001200F2945C50C0
:1029F800D76E5BC0D6FF5D505E10D8B406EF15F0F9
:102A080008EF15F014EF15F002D814EF15F00500D3
:102A1800FA6E5D50FD6E5E50FE6EFF6AFA5012004F
:102A28001200890F8A0F8B0F8C0F8D0F685A622A3C
:102A38001A622A00081018606870782B23030B1399
:102A48001BCE2A009CFF0AC82AE0B120822111016E
:102A5800800F810F820F830F840F920F930F940FB3
:102A6800950F960FFFFFFFFFFFFFFFFFFFFFFFFF21
:102A780031503210D8A443EF15F045EF15F047EF69
:102A880015F049EF15F0D59EF29A12003150321028
:102A9800D8A451EF15F053EF15F055EF15F057EF97
:102AA80015F0CD909D90120035C031F036C032F04F
:102AB800370E336E000E346EC3EC14F0375012002C
:102AC800554A562A1200614A622A12009E9612003E
:10FE0400003738392F3435362A3132332D23303DFB
:10FE14002B313A5365742054656D70657261747545
:10FE2400726500312D4F4E20322D4F464620302D25
:10FE34005245540054656D70657261747572652025
:10FE440053656E740057656C636F6D6520746F2025
:10FE5400536D61727400303A41646D696E202031D3
:10FE64003A4775657374005365742041646D696E17
:10FE74002050617373200053657420477565737453
:10FE840020506173732000313A526F6F6D3120320C
:10FE94003A526F6F6D3200333A526F6F6D332034C4
:10FEA4003A526F6F6D3400323A436F6E74726F6CF6
:10FEB40020303A52455400333A416972436F6E64BC
:10FEC40020343A524554005761697420323020532B
:10FED40065636F6E64730053657373696F6E20544A
:10FEE400696D656F757400333A526F6F6D332034EA
:10FEF4003A4D6F72650053656C656374204D6F6491
:10FF040065203A004C6F67696E20426C6F636B65C5
:10FF140064004C6F67696E20466F722054686500F8
:10FF240041495220434F4E442E20533A00313A5215
:10FF34006F6F6D3420323A54560053657420546503
:10FF44006D702E3A5F5F00436F7272656374205068
:10FF54006173730041646D696E20506173733A007C
:10FF6400477565737420506173733A00486F6D650B
:10FF74002053797374656D0057726F6E6720496EF4
:10FF84007075740050617373205361766564004129
:10FF9400646D696E204D6F646500477565737420E8
:10FFA4004D6F64650046697273742054696D650011
:10FFB40057726F6E67205061737300547269657372
:10FFC400204C65667400526F6F6D3120533A0052B5
:10FFD4006F6F6D3220533A00526F6F6D3320533A76
:10FFE40000526F6F6D3420533A00545620533A0038
:0BFFF4004F4646004F4E0025690000FC
:020000040020DA
:08000000FFFFFFFFFFFFFFFF00
:020000040030CA
:0E000000FF080912FF8181FF0FC00FE00F40C3
:00000001FF
