:0400000007EF00F016
:10000800718248ED0AF0B3EF0CF02650800B2F6E8A
:1000180026502624356E25AE14EF00F016EF00F0BA
:1000280017EF00F035803550D8B41DEF00F01FEF02
:1000380000F032EF00F03528D8A425EF00F027EFC4
:1000480000F02FEF00F0000E236E000E246E000E5D
:10005800256E000E266E258E3AEF00F0000E236EF8
:10006800000E246E000E256E000E266E2A50800BA0
:100078002F1A2A502A24346E29AE45EF00F047EF94
:1000880000F048EF00F034803450D8B44EEF00F060
:1000980050EF00F063EF00F03428D8A456EF00F0DA
:1000A80058EF00F060EF00F0000E276E000E286E8B
:1000B800000E296E000E2A6E298E6BEF00F0000EDE
:1000C800276E000E286E000E296E000E2A6E345020
:1000D800D8B471EF00F073EF00F07BEF00F035500B
:1000E800D8A479EF00F07BEF00F085EF00F0000E68
:1000F800236E000E246E000E256E000E266E1DEF78
:1001080002F029502302F3CF3AF0F4CF3BF03A50F3
:10011800306E316A326A336A3B50366E376A386AF3
:10012800396A28502402F3CF3AF0F4CF3BF03A5022
:100138003026000E3122322233223B503626000E62
:1001480037223822392227502502F3CF3AF0F4CF4C
:100158003BF03A503026000E3122322233223B50F7
:100168003626000E37223822392232C033F031C009
:1001780032F030C031F0306A27502402F3CF3AF021
:10018800F4CF3BF03A5030263B503122000E322259
:10019800000E332228502302F3CF3AF0F4CF3BF07D
:1001A8003A5030263B503122000E3222000E3322C4
:1001B80032C033F031C032F030C031F0306A2750ED
:1001C8002302F3CF3AF0F4CF3BF03A5030263B50BD
:1001D8003122000E3222000E332229502402F3CF9E
:1001E8003AF0F4CF3BF03A5036263B503722000E17
:1001F8003822000E392228502502F3CF3AF0F4CFE6
:100208003BF03A5036263B503722000E3822000E7B
:10021800392229502502F3CF3AF0F4CF3BF03A5077
:100228002B6E3B502C6E2D6A2E6A2DC02EF02CC0E2
:100238002DF02BC02CF02B6A2B5036262C50372251
:100248002D5038222E50392230C02BF031C02CF0DE
:1002580032C02DF033C02EF0190E38EF01F0D890CF
:100268002E322D322C322B32E82E33EF01F02B5068
:1002780036262C5037222D5038222E50392232C0A3
:1002880033F031C032F030C031F0306A345035C00C
:100298002BF02C6A2B26000E2C22820E2B243A6E71
:1002A800FF0E2C203B6E6EEF01F0D89036363736B5
:1002B8003836393633AE63EF01F065EF01F066EF9B
:1002C80001F03680D89030363136323633363A0639
:1002D800D8A03B0638AE73EF01F075EF01F059EF87
:1002E80001F0000E346E33AE7CEF01F07EEF01F0CA
:1002F800A2EF01F0FF0E30142B6EFF0E31142C6E9E
:10030800FF0E32142D6E7F0E33142E6E2B502C10D0
:100318002D102E10D8B493EF01F095EF01F099EF5E
:1003280001F0010E346EA2EF01F036A09EEF01F04D
:10033800A0EF01F0A2EF01F095EF01F03450D8B42E
:10034800A8EF01F0AAEF01F0CEEF01F0010E36267A
:10035800000E37223822392239A0B5EF01F0B7EF65
:1003680001F0CEEF01F036C02BF037C02CF038C0CA
:100378002DF039C02EF02E342E322D322C322B3265
:100388002BC036F02CC037F02DC038F02EC039F015
:100398003A4A3B2A3BBED9EF01F03B5008E13A28E4
:1003A800D8A0D9EF01F0DBEF01F0E5EF01F0000E86
:1003B800366E000E376E800E386E7F0E396E13EF74
:1003C80002F03BBEF2EF01F03B5006E13A04D8B030
:1003D800F0EF01F0F2EF01F0FEEF01F0000E366EE3
:1003E800000E376E000E386E000E396E000E2F6E3E
:1003F80013EF02F03AC035F0FF0E3616FF0E37162F
:100408007F0E3816000E391635A00DEF02F00FEFEB
:1004180002F010EF02F0388ED8903530396E2F5038
:10042800391236C023F037C024F038C025F039C05F
:1004380026F01200C150F00B0609C16E9D0E000196
:10044800B56F000EB66FEBEC09F0A30E0001B46FA8
:10045800000EB56F8DEC09F0A80E0001CB6F000EF1
:10046800CC6F98EC0BF0B10E0001C06F000EC16F9D
:100478005DEC0BF0B00E0001C06F000EC16F5DECBB
:100488000BF0AF0E0001C06F000EC16F5DEC0BF0FA
:10049800AE0E0001C06F000EC16F5DEC0BF0AD0E2B
:1004A8000001C06F000EC16F5DEC0BF0AC0E0001D7
:1004B800C06F000EC16F5DEC0BF000019451C7ECEA
:1004C8000EF08AEF03F083A06CEF02F06EEF02F0FB
:1004D80072EF02F0010E946F61EF02F083B077EFD4
:1004E80002F079EF02F0E4EF03F0000E946F61EF91
:1004F80002F083CFCEF0D890CE33CEA186EF02F0B3
:1005080088EF02F08AEF02F06EEF02F083CFCEF0B0
:10051800D890CE33CEB193EF02F095EF02F061EFB1
:1005280002F079EF02F083CFCEF0D890CE33D89096
:10053800CE33CEA1A2EF02F0A4EF02F0A6EF02F0B4
:100548006EEF02F083CFCEF0D890CE33D890CE3372
:10055800CEB1B1EF02F0B3EF02F061EF02F079EF44
:1005680002F083CFCEF0D890CE33D890CE33D89047
:10057800CE33CEA1C2EF02F0C4EF02F0C6EF02F014
:100588006EEF02F083CFCEF0D890CE33D890CE3332
:10059800D890CE33CEB1D3EF02F0D5EF02F061EFB1
:1005A80002F079EF02F083CFCEF0CE3B0F0ECE17DC
:1005B800CEA1E1EF02F0E3EF02F0E5EF02F06EEF1B
:1005C80002F083CFCEF0CE3B0F0ECE17CEB1EFEFB9
:1005D80002F0F1EF02F061EF02F079EF02F083CF61
:1005E800CEF0050ECF6FD890CE33CF2FF7EF02F0B5
:1005F800CEA101EF03F003EF03F005EF03F06EEF78
:1006080002F083CFCEF0050ECF6FD890CE33CF2F28
:1006180009EF03F0CEB113EF03F015EF03F061EF2C
:1006280002F079EF02F0B10EBC6F000EBD6FE3EC83
:100638000AF061EF02F0B00EBC6F000EBD6FE3EC84
:100648000AF061EF02F0AF0EBC6F000EBD6FE3EC75
:100658000AF061EF02F0AE0EBC6F000EBD6FE3EC66
:100668000AF061EF02F0AD0EBC6F000EBD6FE3EC57
:100678000AF061EF02F0A30EB46F000EB56F8DECB7
:1006880009F0AC0E0001BC6F000EBD6FE3EC0AF080
:1006980061EF02F0B10EBC6F000EBD6F20EC0BF0E5
:1006A80061EF02F0B00EBC6F000EBD6F20EC0BF0D6
:1006B80061EF02F0AF0EBC6F000EBD6F20EC0BF0C7
:1006C80061EF02F0AE0EBC6F000EBD6F20EC0BF0B8
:1006D80061EF02F0AD0EBC6F000EBD6F20EC0BF0A9
:1006E80061EF02F0A30EB26F000EB36FA4EC0EF030
:1006F800AC0E0001BC6F000EBD6F20EC0BF061EF7B
:1007080002F0C9CF58F0596A61EF02F00001955123
:10071800CE6FCF6BCF51000AD8B495EF03F061EFDD
:1007280002F0CE51110AD8B467EF02F0030AD8B428
:100738007DEF02F0010AD8B497EF02F0070AD8B4A7
:10074800B5EF02F0010AD8B4D7EF02F0030AD8B423
:10075800F3EF02F0370AD8B417EF03F0030AD8B45E
:100768001FEF03F0010AD8B427EF03F0070AD8B443
:100778002FEF03F0010AD8B437EF03F0030AD8B417
:100788003FEF03F0170AD8B44EEF03F0030AD8B4CA
:1007980056EF03F0010AD8B45EEF03F0070AD8B4A5
:1007A80066EF03F0010AD8B46EEF03F0030AD8B479
:1007B80076EF03F0760AD8B485EF03F061EF02F024
:1007C80061EF02F007EF00F01D6E1D50D8B4EFEF97
:1007D80003F0F1EF03F013EF04F018BEF8EF03F0A5
:1007E800F6EF03F013EF04F015C019F016C01AF075
:1007F80017C01BF018C01CF0191E1A1E1B1E1C1E49
:10080800192A000E1A221B221C2219C01FF01AC016
:1008180020F01BC021F01CC022F01BEF04F015C013
:100828001FF016C020F017C021F018C022F0155094
:10083800161017101810D8A424EF04F026EF04F0AF
:1008480030EF04F0000E156E000E166E000E176ED7
:10085800000E186EC1EF04F0960E1E6E3AEF04F00B
:100868001E2AD8902232213220321F32000E1F1445
:10087800196E000E20141A6E000E21141B6EFE0E47
:1008880022141C6E19501A101B101C10D8A44FEFFC
:1008980004F051EF04F034EF04F05FEF04F01E2A87
:1008A800010E1F26000E202221222222D890223259
:1008B800213220321F32000E1F14196E000E201430
:1008C8001A6E000E21141B6EFF0E22141C6E195096
:1008D8001A101B101C10D8A474EF04F076EF04F063
:1008E80053EF04F07EEF04F01E06D8901F36203632
:1008F8002136223621BE83EF04F085EF04F08DEF18
:1009080004F0020E1E608BEF04F08DEF04F078EF18
:1009180004F01EB092EF04F094EF04F095EF04F0A9
:10092800219ED8901E321EC019F01A6A1B6A1C6AD2
:1009380019C01CF01B6A1A6A196A19501F121A503A
:1009480020121B5021121C5022121D50D8B4AFEF98
:1009580004F0B1EF04F0B9EF04F018BEB8EF04F0FA
:10096800B6EF04F0B9EF04F0228E1FC015F020C0D6
:1009780016F021C017F022C018F01200644A652A48
:10098800655009E10A0E645CD8A0CDEF04F0CFEF02
:1009980004F06CEF05F0000E656E000E646E000E3C
:1009A800276E000E286E000E296E3F0E2A6E93ECFD
:1009B8000EF011C015F012C016F0176A186A000E72
:1009C800E8EC03F015C023F016C024F017C025F09A
:1009D80018C026F009EC00F023C03CF024C03DF01C
:1009E80025C03EF026C03FF0D0EC07F03CC062F0D6
:1009F8003DC063F0010E5824466E000E5920476E24
:100A08004650625C47506358D8A00DEF05F00FEFD1
:100A180005F01BEF05F0AC0E0A6E000E0B6ED3EC62
:100A28000BF0000E616E010E606E6CEF05F0FF0EAC
:100A38005824466EFF0E5920476E6250465C63503C
:100A48004758D8A02AEF05F02CEF05F038EF05F04D
:100A5800AC0E0A6E000E0B6E0EEC0CF0000E616E02
:100A6800000E606E6CEF05F0010E5824466E000E05
:100A78005920476E6250461807E163504718D8A4BA
:100A880048EF05F04AEF05F06CEF05F060046110DF
:100A9800D8A451EF05F053EF05F05BEF05F0AC0E6D
:100AA8000A6E000E0B6ED3EC0BF06CEF05F0605085
:100AB8006110D8A462EF05F064EF05F06CEF05F063
:100AC800AC0E0A6E000E0B6E0EEC0CF06CEF05F01F
:100AD8001200010E0001BA6FB251B311D8B477EF0A
:100AE80005F079EF05F08AEF05F0B2C0D9FFB3C081
:100AF800DAFFDF30E832E832070BB46F070EB4656F
:100B080088EF05F08AEF05F0EFEF05F0000EBA6FF9
:100B180010EF06F0B2C0D9FFB3C0DAFFDF30E83219
:100B2800E832070BB46F010EB56FB42B9EEF05F0DA
:100B3800D890B537B42F9CEF05F00001B551FF0AE6
:100B4800B66FB2C0D9FFB3C0DAFFDF50070BB76F7B
:100B5800B751020D8A0EF324D96E000EF420DA6E16
:100B6800DECFB8F0DDCFB9F0B8C0D9FFB9C0DAFF31
:100B7800B651DF1610EF06F0B2C0D9FFB3C0DAFFE6
:100B8800DF30E832E832070BB46F010EB56FB42BD3
:100B9800D0EF05F0D890B537B42FCEEF05F0B2C03E
:100BA800D9FFB3C0DAFFDF50070B0001B66FB651AB
:100BB800020D8A0EF324D96E000EF420DA6EDECF11
:100BC800B7F0DDCFB8F0B7C0D9FFB8C0DAFFB5517C
:100BD800DF1210EF06F0B2C0D9FFB3C0DAFFDFBCF6
:100BE800F8EF05F0FBEF05F0010EFCEF05F0000E45
:100BF800B46FB56BB551000AD8B405EF06F08AEFAB
:100C080005F0B451000AD8B48EEF05F0010AD8B443
:100C1800C0EF05F08AEF05F0BA511200010E00018D
:100C2800BB6FB251B311D8B41CEF06F01EEF06F03B
:100C38002FEF06F0B2C0D9FFB3C0DAFFDF30E832D9
:100C4800E832070BB56F070EB5652DEF06F02FEFED
:100C580006F094EF06F0000EBB6F94EF06F0B2C0FA
:100C6800D9FFB3C0DAFFDF30E832E832070BB56FDF
:100C7800010EB66FB52B43EF06F0D890B637B52FF7
:100C880041EF06F00001B651FF0AB76FB2C0D9FFB5
:100C9800B3C0DAFFDF50070BB86FB851020D800EF2
:100CA800F324D96E000EF420DA6EDECFB9F0DDCF72
:100CB800BAF0B9C0D9FFBAC0DAFFB751DF16A9EF49
:100CC80006F0B2C0D9FFB3C0DAFFDF30E832E8324D
:100CD800070BB56F010EB66FB52B75EF06F0D89000
:100CE800B637B52F73EF06F0B2C0D9FFB3C0DAFF3D
:100CF800DF50070B0001B76FB751020D800EF324C8
:100D0800D96E000EF420DA6EDECFB8F0DDCFB9F080
:100D1800B8C0D9FFB9C0DAFFB651DF12A9EF06F0A3
:100D2800B451B56FB66BB651000AD8B49EEF06F051
:100D3800A9EF06F0B551000AD8B433EF06F0010A5E
:100D4800D8B465EF06F0A9EF06F0BB511200000118
:100D580020EE02F0C051D926C151DA22DF50D8B4B2
:100D6800B8EF06F0BAEF06F0E6EF06F020EE02F074
:100D7800C051D926C151DA22DE04D8B4C6EF06F034
:100D8800C8EF06F0E6EF06F020EE02F0C051D926D3
:100D9800C151DA22020EDE18D8B4D5EF06F0D7EF2B
:100DA80006F0E6EF06F020EE02F0C051D926C15158
:100DB800DA22030EDE18D8A4E4EF06F0E6EF06F018
:100DC80006EF07F09CC0C4F09BC0C5F09AC0C6F0FF
:100DD800C40EBC6F000EBD6F7FEC0CF00001C36F3A
:100DE800C60EBC6F000EBD6F7FEC0CF00001C36F28
:100DF800C50EBC6F000EBD6F7FEC0CF00001C36F19
:100E08003EEF07F020EE02F0C051D926C151DA2298
:100E1800040EDE18D8A413EF07F015EF07F03EEF25
:100E280007F099C0C7F098C0C8F097C0C9F096C03D
:100E3800CAF0C70EBC6F000EBD6F7FEC0CF000014E
:100E4800C36FC80EBC6F000EBD6F7FEC0CF00001C5
:100E5800C36FC90EBC6F000EBD6F7FEC0CF00001B4
:100E6800C36FCA0EBC6F000EBD6F7FEC0CF00001A3
:100E7800C36FC79E120001500210D8B446EF07F0A6
:100E880048EF07F059EF07F001C0D9FF02C0DAFFB9
:100E9800DF30E832E832070B046E070E046457EFC0
:100EA80007F059EF07F0BAEF07F0BAEF07F001C003
:100EB800D9FF02C0DAFFDF30E832E832070B046EF0
:100EC800010E056E042A6BEF07F0D8900536042E44
:100ED80069EF07F00550FF0A066E01C0D9FF02C08E
:100EE800DAFFDF50070B076E0750020D800EF32460
:100EF800D96E000EF420DA6EDECF08F0DDCF09F0EF
:100F080008C0D9FF09C0DAFF0650DF16CFEF07F097
:100F180001C0D9FF02C0DAFFDF30E832E832070B40
:100F2800046E010E056E042A9CEF07F0D890053672
:100F3800042E9AEF07F001C0D9FF02C0DAFFDF5094
:100F4800070B066E0650020D800EF324D96E000EB4
:100F5800F420DA6EDECF07F0DDCF08F007C0D9FF46
:100F680008C0DAFF0550DF12CFEF07F00350046E18
:100F7800056A0550000AD8B4C4EF07F0CFEF07F0B0
:100F88000450000AD8B45BEF07F0010AD8B48CEF1C
:100F980007F0CFEF07F012003E343F34456E45505E
:100FA800D8A4D9EF07F0DBEF07F0E5EF07F0000E64
:100FB8003C6E000E3D6E000E3E6E000E3F6E52EF10
:100FC80008F03CC040F03DC041F03EC042F03FC098
:100FD80043F0200EF5EF07F0D89043324232413209
:100FE8004032E82EF0EF07F04050446E3E8EFF0E80
:100FF8003C16FF0E3D16FF0E3E16000E3F16960ECF
:10100800455E45BE0CEF08F00AEF08F022EF08F045
:101018004550800A970FD8B014EF08F016EF08F083
:1010280018EF08F0DBEF07F0D8903F323E323D3240
:101038003C32453E18EF08F03AEF08F01F0E4564C1
:1010480028EF08F02AEF08F032EF08F0DBEF07F09E
:10105800D8903C363D363E363F3645064550D8A4F6
:1010680038EF08F03AEF08F02CEF08F04450D8B405
:1010780040EF08F042EF08F04AEF08F03F1E3E1E2E
:101088003D1E3C6C000E3D223E223F223CC03CF0FF
:101098003DC03DF03EC03EF03FC03FF012000001B1
:1010A800B46F7EEF08F09280C0EF08F09282C0EF34
:1010B80008F09284C0EF08F09286C0EF08F0928A98
:1010C800C0EF08F09680C0EF08F09682C0EF08F0F5
:1010D8009684C0EF08F09384C0EF08F09386C0EFC1
:1010E80008F09382C0EF08F09388C0EF08F093806F
:1010F800C0EF08F00001B451B26FB36BB351000AEE
:10110800D8B489EF08F0C0EF08F0B251000AD8B49B
:1011180057EF08F0010AD8B45AEF08F0030AD8B418
:101128005DEF08F0010AD8B460EF08F0070AD8B4F8
:1011380063EF08F0010AD8B466EF08F0030AD8B4E0
:1011480069EF08F0010AD8B46CEF08F00F0AD8B4B8
:101158006FEF08F0010AD8B472EF08F0030AD8B4A8
:1011680075EF08F0010AD8B478EF08F0070AD8B488
:101178007BEF08F0C0EF08F01200036EEBEF08F009
:1011880092802CEF09F092822CEF09F092842CEFD8
:1011980009F092862CEF09F0928A2CEF09F09680DC
:1011A8002CEF09F096822CEF09F096842CEF09F0C9
:1011B80093842CEF09F093862CEF09F093822CEF9F
:1011C80009F093882CEF09F093802CEF09F0035075
:1011D800016E026A0250000AD8B4F5EF08F02CEF4D
:1011E80009F00150000AD8B4C4EF08F0010AD8B4D5
:1011F800C7EF08F0030AD8B4CAEF08F0010AD8B458
:10120800CDEF08F0070AD8B4D0EF08F0010AD8B437
:10121800D3EF08F0030AD8B4D6EF08F0010AD8B41F
:10122800D9EF08F00F0AD8B4DCEF08F0010AD8B4F7
:10123800DFEF08F0030AD8B4E2EF08F0010AD8B4E7
:10124800E5EF08F0070AD8B4E8EF08F02CEF09F04A
:10125800120001500210D8B434EF09F036EF09F04B
:101268003FEF09F003500410D8A43DEF09F03FEF19
:1012780009F043EF09F0000E0A6E8BEF09F020EE3B
:1012880005F00150D9260250DA22DFA24EEF09F00C
:1012980050EF09F063EF09F0C450066E056AC350B9
:1012A8000524076E000E0620086E03C0D9FF04C08F
:1012B800DAFF07C0DEFF08C0DDFF89EF09F020EE86
:1012C80005F00150D9260250DA22DFB26EEF09F09C
:1012D80070EF09F050EF09F0C450066E056AC3506C
:1012E8000524076E000E0620086E060E096E0834E7
:1012F80008320732092E7BEF09F003C0D9FF04C07A
:10130800DAFF07C0DEFF08C0DDFF010E0A6E0A50D3
:1013180012000001B451B511D8A495EF09F097EF68
:1013280009F099EF09F0EAEF09F0CD9020EE04F00A
:10133800B451D926B551DA22DF50030BB66FB63B4C
:10134800CD50B619CF0BB619CD6EB4C0B2F0B5C03A
:10135800B3F0A3EC0AF0B4C0B2F0B5C0B3F07AECC5
:101368000DF0B4C0B2F0B5C0B3F05AEC0DF0000106
:1013780020EE02F0B451D926B551DA22DECFB6F00C
:10138800DDCFB7F0B7C0B6F0B76BB651CF6E20EE71
:1013980002F0B451D926B551DA22DF50CE6E20EED4
:1013A80002F0B451D926B551DA22DECF66F0DDCF8E
:1013B80067F09D809E90F28EF28CB4C0D9FFB5C0C4
:1013C800DAFFDECF68F0DDCF69F0CD8012000001D2
:1013D800B551B611D8A4F3EF09F0F5EF09F0F7EF1E
:1013E80009F047EF0AF0C29020EE02F0B551D92675
:1013F800B651DA22DF50B76FB747B747C250B719AF
:10140800C30BB719C26E20EE02F0B551D926B651FA
:10141800DA22DF5053EC08F0000120EE04F0B55159
:10142800D926B651DA22DF50B76FC050B719F80B7A
:10143800B719C06E20EE03F0B551D926B651DA229D
:10144800DF50B76FB747B747B747C050B719C70B93
:10145800B719C06E9D8C9E9CF28EF28CB5C0D9FFD8
:10146800B6C0DAFFDECFD2F0DDCFD3F0B5C0B2F030
:10147800B6C0B3F011EC0DF0B5C0B2F0B6C0B3F021
:1014880037EC0DF0C28012000600FACF48F0FBCF0F
:1014980049F0D9CF4AF0DACF4BF0F3CF4CF0F4CF84
:1014A8004DF09DAC5AEF0AF05CEF0AF065EF0AF0D8
:1014B8009EAC61EF0AF063EF0AF065EF0AF0CFEC3B
:1014C8000EF0F2AA6AEF0AF06CEF0AF075EF0AF074
:1014D800F2A471EF0AF073EF0AF075EF0AF033EC3B
:1014E8000EF09DA07AEF0AF07CEF0AF085EF0AF083
:1014F8009EA081EF0AF083EF0AF085EF0AF017EC5F
:101508000EF09DA68AEF0AF08CEF0AF095EF0AF02C
:101518009EA691EF0AF093EF0AF095EF0AF068ECB7
:101528000EF04DC0F4FF4CC0F3FF4BC0DAFF4AC0C9
:10153800D9FF49C0FBFF48C0FAFF719211000001B2
:1015480020EE04F0B251D926B351DA22DFB4AFEF5E
:101558000AF0B1EF0AF0B4EF0AF0CD92E2EF0AF028
:1015680020EE04F0B251D926B351DA22DFA4BFEF3E
:101578000AF0C1EF0AF0E2EF0AF0CD8220EE04F0A3
:10158800B251D926B351DA22DFB6CDEF0AF0CFEF48
:101598000AF0D2EF0AF0CD94E2EF0AF020EE04F060
:1015A800B251D926B351DA22DFA6DDEF0AF0DFEF18
:1015B8000AF0E2EF0AF0CD84E2EF0AF0120000012F
:1015C800BC51BD11D8A4EBEF0AF0EDEF0AF0EFEF34
:1015D8000AF01FEF0BF0D5C0BFF0BCC0D9FFBDC0EB
:1015E800DAFFDF500F0BBE6FBF51BE19F80BBE19E3
:1015F800BF6FBCC0D9FFBDC0DAFFDF38070BBE6FB5
:10160800BE47BE47BE47BF51BE19C70BBE19BF6F05
:10161800BF9DBCC0D9FFBDC0DAFFDFAE02D0BF8F0F
:1016280002D00001BF9FBF0EB26F000EB36F010E54
:10163800B46F12EC06F012000001BC51BD11D8A421
:1016480028EF0BF02AEF0BF02CEF0BF05CEF0BF010
:10165800D4C0BFF0BCC0D9FFBDC0DAFFDF500F0B4C
:10166800BE6FBF51BE19F80BBE19BF6FBCC0D9FF02
:10167800BDC0DAFFDF38070BBE6FBE47BE47BE47A7
:10168800BF51BE19C70BBE19BF6FBF9DBCC0D9FFE4
:10169800BDC0DAFFDFAE02D0BF8F02D00001BF9F0E
:1016A800BF0EB26F000EB36F000EB46F12EC06F0EF
:1016B80012000001C051C111D8A465EF0BF067EF0B
:1016C8000BF069EF0BF097EF0BF0D6C0C3F0C0C07A
:1016D800D9FFC1C0DAFFDF500F0BC26FC351C21967
:1016E800F80BC219C36FC0C0D9FFC1C0DAFFDF3819
:1016F800070BC26FC247C247C247C351C219C70BC3
:10170800C219C36FC39DC0C0D9FFC1C0DAFFDFAE25
:1017180002D0C38F02D00001C39FC30EBC6F000E5E
:10172800BD6F7FEC0CF012000001CB51CC11D8A496
:10173800A0EF0BF0A2EF0BF0A4EF0BF0D2EF0BF041
:10174800C69ACBC0C0F0CCC0C1F0ABEC06F000012B
:1017580020EE02F0CB51D926CC51DA22DF50CD6FE2
:10176800C650CD19F00BCD19C66ECBC0B2F0CCC0A7
:10177800B3F09AEC0DF0CBC0B2F0CCC0B3F0BAEC39
:101788000DF0CBC0B2F0CCC0B3F0DAEC0DF0CBC0AA
:10179800B2F0CCC0B3F0E6EC0CF0C68A12000A50E6
:1017A8000B10D8A4DAEF0BF0DCEF0BF0DEEF0BF048
:1017B8000DEF0CF0D5C00DF00AC0D9FF0BC0DAFF51
:1017C800DF500F0B0C6E0D500C18F80B0C180D6E2B
:1017D8000AC0D9FF0BC0DAFFDF38070B0C6E0C46C6
:1017E8000C460C460D500C18C70B0C180D6E0D9CB2
:1017F8000AC0D9FF0BC0DAFFDFAE02D00D8E01D0D0
:101808000D9E0D0E016E000E026E010E036E3FEC72
:1018180007F012000A500B10D8A415EF0CF017EFC0
:101828000CF019EF0CF048EF0CF0D4C00DF00AC022
:10183800D9FF0BC0DAFFDF500F0B0C6E0D500C18E0
:10184800F80B0C180D6E0AC0D9FF0BC0DAFFDF3891
:10185800070B0C6E0C460C460C460D500C18C70BAB
:101868000C180D6E0D9C0AC0D9FF0BC0DAFFDFAE55
:1018780002D00D8E01D00D9E0D0E016E000E026E6F
:10188800000E036E3FEC07F012000B500C10D8B49A
:1018980050EF0CF052EF0CF05BEF0CF00E500F1005
:1018A800D8A459EF0CF05BEF0CF05DEF0CF07EEF75
:1018B8000CF00BC004F00CC005F00DC006F0FAECFB
:1018C8000DF0106E0BC001F00CC002F081EC0EF0B0
:1018D800106EC2B272EF0CF074EF0CF06DEF0CF0FA
:1018E8000BC001F00CC002F00EC003F00FC004F0F2
:1018F8002DEC09F012000001BC51BD11D8B487EFDE
:101908000CF089EF0CF09AEF0CF0BCC0D9FFBDC009
:10191800DAFFDF30E832E832070BBE6F070EBE652C
:1019280098EF0CF09AEF0CF09AEF0CF0BCC0B2F004
:10193800BDC0B3F06DEC05F0BCC0B2F0BDC0B3F0F3
:10194800BCC0D9FFBDC0DAFF0001000EDFBE010E2A
:10195800B46F12EC06F00001BF6FBF5112009E0E6B
:10196800F66E1C0EF76E000EF86E00EE80F010EEAC
:1019780032F00900F5CFEEFFE550E150FAE17C0EB8
:10198800F66E1D0EF76E000EF86E00EE4EF010EEBD
:1019980012F00900F5CFEEFFE550E150FAE100EE54
:1019A800D0F0070EEE6AE806FDE100EE60F0110ED9
:1019B800EE6AE806FDE171907192000EF86E000182
:1019C8001EEF02F0000120EE03F0B251D926B35108
:1019D800DA22DFA6F2EF0CF0F4EF0CF002EF0DF0D4
:1019E8009D869E96F28EF28CB2C0D9FFB3C0DAFF04
:1019F800DECFD0F0DDCFD1F010EF0DF020EE03F008
:101A0800B251D926B351DA22DFB60DEF0DF00FEF40
:101A18000DF010EF0DF09D961200000120EE05F07C
:101A2800B251D926B351DA22DFA01DEF0DF01FEF16
:101A38000DF023EF0DF0C188C18A36EF0DF020EECE
:101A480005F0B251D926B351DA22DFB02EEF0DF0EE
:101A580030EF0DF034EF0DF0C198C19A36EF0DF06C
:101A6800C198C19A1200000120EE05F0B251D926A2
:101A7800B351DA22DFA243EF0DF045EF0DF048EF46
:101A88000DF0C08E59EF0DF020EE05F0B251D926B9
:101A9800B351DA22DFB253EF0DF055EF0DF058EFE6
:101AA8000DF0C09E59EF0DF0C08E1200000120EE1F
:101AB80004F0B251D926B351DA22DFBA66EF0DF03D
:101AC80068EF0DF06BEF0DF0CD9E79EF0DF020EE85
:101AD80004F0B251D926B351DA22DFAA76EF0DF01D
:101AE80078EF0DF079EF0DF0CD8E1200000120EEA9
:101AF80004F0B251D926B351DA22DFA886EF0DF0EF
:101B080088EF0DF08BEF0DF0CD8699EF0DF020EEFC
:101B180004F0B251D926B351DA22DFB896EF0DF0AE
:101B280098EF0DF099EF0DF0CD961200000120EE20
:101B380003F0B251D926B351DA22DFA0A6EF0DF097
:101B4800A8EF0DF0ABEF0DF0C688B9EF0DF020EE61
:101B580003F0B251D926B351DA22DFB0B6EF0DF057
:101B6800B8EF0DF0B9EF0DF0C6981200000120EEA5
:101B780003F0B251D926B351DA22DFA2C6EF0DF035
:101B8800C8EF0DF0CBEF0DF0C78CD9EF0DF020EEBC
:101B980003F0B251D926B351DA22DFB2D6EF0DF0F5
:101BA800D8EF0DF0D9EF0DF0C79C1200000120EE20
:101BB80003F0B251D926B351DA22DFA4E6EF0DF0D3
:101BC800E8EF0DF0EBEF0DF0C78EF9EF0DF020EE1A
:101BD80003F0B251D926B351DA22DFB4F6EF0DF093
:101BE800F8EF0DF0F9EF0DF0C79E12000450051044
:101BF800D8A401EF0EF003EF0EF007EF0EF0000E81
:101C0800086E15EF0EF006C007F007460746C250EB
:101C18000718C30B0718C26E0650C1EC08F0010E76
:101C2800086E085012009E906750CF6E66C0CEFFB7
:101C380068506910D8B423EF0EF025EF0EF032EF9C
:101C48000EF002D832EF0EF00500FA6E6850FD6E05
:101C58006950FE6EF850FF6EFA5012001200F294AE
:101C68006B50D76E6AC0D6FF6C506D10D8B43FEF7A
:101C78000EF041EF0EF04EEF0EF002D84EEF0EF0E0
:101C88000500FA6E6C50FD6E6D50FE6EF850FF6EDA
:101C9800FA5012001200890F8A0F8B0F8C0F8D0FCC
:101CA800920F930F940F950F960FFFFF685A622AB1
:101CB8001A622A0000000504028409E0B120661DAA
:101CC80004085343332313039E960001D051D111C6
:101CD800D8B471EF0EF073EF0EF080EF0EF002D86B
:101CE80080EF0EF00500FA6ED051FD6ED151FE6EF8
:101CF800F850FF6EFA501200120001500210D8A4DA
:101D080088EF0EF08AEF0EF08EEF0EF0000E036EE5
:101D180091EF0EF0C282010E036E035012009D0E69
:101D28000B6E000E0C6E000E0D6E130E0E6E000E76
:101D38000F6E49EC0CF013C011F014C012F0120031
:101D48000001B251B311D8A4ACEF0EF0AEEF0EF013
:101D5800B0EF0EF0B2EF0EF0CD909D9012009E966F
:101D6800C7A0B9EF0EF0BBEF0EF0B4EF0EF0C9CF7D
:101D780095F01200800F810F820F830F840F1800D7
:101D8800981D009CFF0A0001B26FB2C0C9FF120083
:0A1D98006E4A6F2A12009E9C120092
:020000040020DA
:08000000FFFFFFFFFFFFFFFF00
:020000040030CA
:0E000000FF080912FF8181FF0FC00FE00F40C3
:00000001FF
